:020000040800F2
:1000000000500020B57E0008ADAC0008B1AC00087F
:10001000B5AC0008B9AC0008BDAC00080000000099
:10002000000000000000000000000000C1AC00085B
:10003000C5AC000800000000C9AC0008057F00083E
:10004000057F0008057F0008057F0008057F000880
:10005000057F0008057F0008057F0008057F000870
:10006000057F0008057F0008057F0008057F000860
:10007000057F0008057F0008057F0008057F000850
:10008000057F0008057F0008057F0008057F000840
:10009000CDAC0008057F0008057F000861920008CC
:1000A000057F0008057F0008057F0008057F000820
:1000B0000D800008FD820008057F0008057F00080C
:1000C000057F0008057F0008057F0008057F000800
:1000D000057F0008057F0008057F0008057F0008F0
:1000E00005310008057F0008057F000800000000BA
:1000F0000000000000000000000000000000000000
:0C01000000000000000000005FF808F1A3
:1001100010B5054C237833B9044B13B10448AFF341
:1001200000800123237010BDE401002000000000C6
:100130008CBE000808B5034B1BB103490348AFF35D
:10014000008008BD00000000E80100208CBE00080F
:1001500081F0004102E000BF83F0004330B54FEA78
:1001600041044FEA430594EA050F08BF90EA020FE5
:100170001FBF54EA000C55EA020C7FEA645C7FEA78
:10018000655C00F0E2804FEA5454D4EB5555B8BF9B
:100190006D420CDD2C4480EA020281EA030382EA0C
:1001A000000083EA010180EA020281EA0303362D9E
:1001B00088BF30BD11F0004F4FEA01314FF4801C71
:1001C0004CEA113102D0404261EB410113F0004F83
:1001D0004FEA03334CEA133302D0524263EB43033A
:1001E00094EA050F00F0A780A4F10104D5F1200ED8
:1001F0000DDB02FA0EFC22FA05F2801841F1000133
:1002000003FA0EF2801843FA05F359410EE0A5F106
:1002100020050EF1200E012A03FA0EFC28BF4CF037
:10022000020C43FA05F3C01851EBE37101F00045ED
:1002300007D54FF0000EDCF1000C7EEB00006EEBFA
:100240000101B1F5801F1BD3B1F5001F0CD3490884
:100250005FEA30004FEA3C0C04F101044FEA4452DB
:1002600012F5800F80F09A80BCF1004F08BF5FEA62
:10027000500C50F1000041EB045141EA050130BD42
:100280005FEA4C0C404141EB010111F4801FA4F1E5
:100290000104E9D191F0000F04BF01460020B1FA3A
:1002A00081F308BF2033A3F10B03B3F120020CDA72
:1002B0000C3208DD02F1140CC2F10C0201FA0CF050
:1002C00021FA02F10CE002F11402D8BFC2F1200CB5
:1002D00001FA02F120FA0CFCDCBF41EA0C0190406B
:1002E000E41AA2BF01EB0451294330BD6FEA0404B4
:1002F0001F3C1CDA0C340EDC04F11404C4F120029F
:1003000020FA04F001FA02F340EA030021FA04F3B0
:1003100045EA030130BDC4F10C04C4F1200220FA07
:1003200002F001FA04F340EA0300294630BD21FA45
:1003300004F0294630BD94F0000F83F4801306BF0B
:1003400081F480110134013D4EE77FEA645C18BFFF
:100350007FEA655C29D094EA050F08BF90EA020F96
:1003600005D054EA000C04BF1946104630BD91EA8E
:10037000030F1EBF0021002030BD5FEA545C05D191
:100380004000494128BF41F0004130BD14F58004D0
:100390003CBF01F5801130BD01F0004545F0FE4144
:1003A00041F470014FF0000030BD7FEA645C1ABF79
:1003B000194610467FEA655C1CBF0B46024650EAB0
:1003C000013406BF52EA033591EA030F41F40021DC
:1003D00030BD00BF90F0000F04BF0021704730B562
:1003E0004FF4806404F132044FF000054FF0000137
:1003F00050E700BF90F0000F04BF0021704730B5F8
:100400004FF4806404F1320410F0004548BF4042CC
:100410004FF000013EE700BF42004FEAE2014FEA21
:1004200031014FEA02701FBF12F07F4393F07F4FFC
:1004300081F06051704792F0000F14BF93F07F4F2E
:10044000704730B54FF4607401F0004521F0004171
:1004500020E700BF50EA010208BF704730B54FF0F7
:1004600000050AE050EA010208BF704730B511F0FC
:10047000004502D5404261EB41014FF4806404F134
:1004800032045FEA915C3FF4DCAE4FF003025FEAB6
:10049000DC0C18BF03325FEADC0C18BF033202EB3E
:1004A000DC02C2F1200300FA03FC20FA02F001FA98
:1004B00003FE40EA0E0021FA02F11444C1E600BF37
:1004C00070B54FF0FF0C4CF4E06C1CEA11541DBFEA
:1004D0001CEA135594EA0C0F95EA0C0F00F0DEF8B5
:1004E0002C4481EA030621EA4C5123EA4C5350EA9A
:1004F000013518BF52EA033541F4801143F48013EB
:1005000038D0A0FB02CE4FF00005E1FB02E506F07B
:100510000042E0FB03E54FF00006E1FB03569CF0D0
:10052000000F18BF4EF0010EA4F1FF04B6F5007FD6
:1005300064F5407404D25FEA4E0E6D4146EB060648
:1005400042EAC62141EA55514FEAC52040EA5E50D1
:100550004FEACE2EB4F1FD0C88BFBCF5E06F1ED87B
:10056000BEF1004F08BF5FEA500E50F1000041EBB2
:10057000045170BD06F0004646EA010140EA02005F
:1005800081EA0301B4EB5C04C2BFD4EB0C0541EA81
:10059000045170BD41F480114FF0000E013C00F396
:1005A000AB8014F1360FDEBF002001F0004170BDBA
:1005B000C4F10004203C35DA0C341BDC04F11404D3
:1005C000C4F1200500FA05F320FA04F001FA05F25F
:1005D00040EA020001F0004221F0004110EBD3702C
:1005E00021FA04F642EB06015EEA430E08BF20EA58
:1005F000D37070BDC4F10C04C4F1200500FA04F3FB
:1006000020FA05F001FA04F240EA020001F000418C
:1006100010EBD37041F100015EEA430E08BF20EAFF
:10062000D37070BDC4F1200500FA05F24EEA020E47
:1006300020FA04F301FA05F243EA020321FA04F076
:1006400001F0004121FA04F220EA020000EBD3702D
:100650005EEA430E08BF20EAD37070BD94F0000F2D
:100660000FD101F00046400041EB010111F4801F61
:1006700008BF013CF7D041EA060195F0000F18BF12
:10068000704703F00046520043EB030313F4801F4E
:1006900008BF013DF7D043EA0603704794EA0C0F08
:1006A0000CEA135518BF95EA0C0F0CD050EA41061E
:1006B00018BF52EA4306D1D181EA030101F000419B
:1006C0004FF0000070BD50EA410606BF10461946C3
:1006D00052EA430619D094EA0C0F02D150EA0136CF
:1006E00013D195EA0C0F05D152EA03361CBF104610
:1006F00019460AD181EA030101F0004141F0FE41AF
:1007000041F470014FF0000070BD41F0FE4141F432
:10071000780170BD70B54FF0FF0C4CF4E06C1CEA32
:1007200011541DBF1CEA135594EA0C0F95EA0C0FE7
:1007300000F0A7F8A4EB050481EA030E52EA0335A2
:100740004FEA013100F088804FEA03334FF08055C3
:1007500045EA131343EA12634FEA022245EA1115F0
:1007600045EA10654FEA00260EF000419D4208BFA1
:10077000964244F1FD0404F5407402D25B084FEA4E
:100780003202B61A65EB03055B084FEA32024FF4FA
:1007900080104FF4002CB6EB020E75EB030E22BF57
:1007A000B61A754640EA0C005B084FEA3202B6EB17
:1007B000020E75EB030E22BFB61A754640EA5C00C6
:1007C0005B084FEA3202B6EB020E75EB030E22BF56
:1007D000B61A754640EA9C005B084FEA3202B6EB57
:1007E000020E75EB030E22BFB61A754640EADC0016
:1007F00055EA060E18D04FEA051545EA16754FEA78
:1008000006164FEAC30343EA52734FEAC2025FEA95
:100810001C1CC0D111F4801F0BD141EA00014FF024
:1008200000004FF0004CB6E711F4801F04BF0143F5
:100830000020B4F1FD0C88BFBCF5E06F3FF6AFAE11
:10084000B5EB030C04BFB6EB020C5FEA500C50F1A1
:10085000000041EB045170BD0EF0004E4EEA113124
:1008600014EB5C04C2BFD4EB0C0541EA045170BD2B
:1008700041F480114FF0000E013C90E645EA060E6F
:100880008DE60CEA135594EA0C0F08BF95EA0C0F9D
:100890003FF43BAF94EA0C0F0AD150EA01347FF4E5
:1008A00034AF95EA0C0F7FF425AF104619462CE7BC
:1008B00095EA0C0F06D152EA03353FF4FDAE10461F
:1008C000194622E750EA410618BF52EA43067FF470
:1008D000C5AE50EA41047FF40DAF52EA43057FF400
:1008E000EBAE12E74FF0FF3C06E000BF4FF0010C0B
:1008F00002E000BF4FF0010C4DF804CD4FEA410C6F
:100900007FEA6C5C4FEA430C18BF7FEA6C5C1BD03B
:1009100001B050EA410C0CBF52EA430C91EA030FBC
:1009200002BF90EA020F0020704710F1000F91EA19
:10093000030F58BF994208BF90422CBFD8176FEAE7
:10094000E37040F0010070474FEA410C7FEA6C5CB5
:1009500002D150EA013C07D14FEA430C7FEA6C5CBC
:10096000D6D152EA033CD3D05DF8040B704700BFE8
:100970008446104662468C461946634600E000BF36
:1009800001B5FFF7B7FF002848BF10F1000F01BD08
:100990004DF808EDFFF7F4FF0CBF012000205DF8D3
:1009A00008FB00BF4DF808EDFFF7EAFF34BF012058
:1009B00000205DF808FB00BF4DF808EDFFF7E0FFF1
:1009C00094BF012000205DF808FB00BF4DF808ED42
:1009D000FFF7CEFF94BF012000205DF808FB00BFA9
:1009E0004DF808EDFFF7C4FF34BF012000205DF88B
:1009F00008FB00BF4FEA4102B2F1E04324BFB3F568
:100A0000001CDCF1FE5C0DD901F0004C4FEAC00285
:100A10004CEA5070B2F1004F40EB830008BF20F069
:100A20000100704711F0804F21D113F13872BCBF23
:100A300001F00040704741F480114FEA5252C2F178
:100A40001802C2F1200C10FA0CF320FA02F018BFC1
:100A500040F001004FEAC1234FEAD32303FA0CFC14
:100A600040EA0C0023FA02F34FEA4303CCE77FEAA3
:100A7000625307D150EA01331EBF4FF0FE4040F4ED
:100A80004000704701F0004040F0FE4040F400009C
:100A9000704700BF80F0004002E000BF81F00041DD
:100AA00042001FBF5FEA410392EA030F7FEA226C14
:100AB0007FEA236C6AD04FEA1262D2EB1363C1BFA4
:100AC000D218414048404140B8BF5B42192B88BF13
:100AD000704710F0004F40F4000020F07F4018BF36
:100AE000404211F0004F41F4000121F07F4118BF56
:100AF000494292EA030F3FD0A2F1010241FA03FCFE
:100B000010EB0C00C3F1200301FA03F100F00043E5
:100B100002D5494260EB4000B0F5000F13D3B0F1AD
:100B2000807F06D340084FEA310102F10102FE2A1C
:100B300051D2B1F1004F40EBC25008BF20F001008C
:100B400040EA03007047490040EB000010F4000F3A
:100B5000A2F10102EDD1B0FA80FCACF1080CB2EBCD
:100B60000C0200FA0CF0AABF00EBC250524218432C
:100B7000BCBFD0401843704792F0000F81F40001D1
:100B800006BF80F400000132013BB5E74FEA4103A4
:100B90007FEA226C18BF7FEA236C21D092EA030F10
:100BA00004D092F0000F08BF0846704790EA010F8A
:100BB0001CBF0020704712F07F4F04D1400028BFB7
:100BC00040F00040704712F100723CBF00F5000099
:100BD000704700F0004343F0FE4040F400007047CF
:100BE0007FEA226216BF08467FEA2363014642027B
:100BF00006BF5FEA412390EA010F40F4800070478E
:100C00004FF0000304E000BF10F0004348BF404233
:100C10005FEA000C08BF704743F0964301464FF06F
:100C200000001CE050EA010208BF70474FF00003CB
:100C30000AE000BF50EA010208BF704711F000430C
:100C400002D5404261EB41015FEA010C02BF8446DC
:100C50000146002043F0B64308BFA3F18053A3F53B
:100C60000003BCFA8CF2083AA3EBC25310DB01FA82
:100C700002FC634400FA02FCC2F12002BCF1004F06
:100C800020FA02F243EB020008BF20F00100704797
:100C900002F1200201FA02FCC2F1200250EA4C00EB
:100CA00021FA02F243EB020008BF20EADC70704731
:100CB0004FF0FF0C1CEAD0521EBF1CEAD15392EA3F
:100CC0000C0F93EA0C0F6FD01A4480EA010C40021B
:100CD00018BF5FEA41211ED04FF0006343EA501075
:100CE00043EA5111A0FB01310CF00040B1F5000FB7
:100CF0003EBF490041EAD3715B0040EA010062F166
:100D00007F02FD2A1DD8B3F1004F40EBC25008BF4F
:100D100020F00100704790F0000F0CF0004C08BF6D
:100D200049024CEA502040EA51207F3AC2BFD2F13A
:100D3000FF0340EAC250704740F400004FF0000348
:100D4000013A5DDC12F1190FDCBF00F00040704782
:100D5000C2F10002410021FA02F1C2F1200200FAC0
:100D600002FC5FEA310040F1000053EA4C0308BF87
:100D700020EADC70704792F0000F00F0004C02BFD8
:100D8000400010F4000F013AF9D040EA0C0093F053
:100D9000000F01F0004C02BF490011F4000F013BAD
:100DA000F9D041EA0C018FE70CEAD15392EA0C0F1B
:100DB00018BF93EA0C0F0AD030F0004C18BF31F086
:100DC000004CD8D180EA010000F00040704790F05C
:100DD000000F17BF90F0004F084691F0000F91F000
:100DE000004F14D092EA0C0F01D142020FD193EAC6
:100DF0000C0F03D14B0218BF084608D180EA01004E
:100E000000F0004040F0FE4040F40000704740F029
:100E1000FE4040F4400070474FF0FF0C1CEAD052F7
:100E20001EBF1CEAD15392EA0C0F93EA0C0F69D053
:100E3000A2EB030280EA010C49024FEA402037D0BE
:100E40004FF0805343EA111143EA10130CF00040B5
:100E50008B4238BF5B0042F17D024FF4000C8B42A5
:100E600024BF5B1A40EA0C00B3EB510F24BFA3EB85
:100E7000510340EA5C00B3EB910F24BFA3EB910355
:100E800040EA9C00B3EBD10F24BFA3EBD10340EAAF
:100E9000DC001B0118BF5FEA1C1CE0D1FD2A3FF6F5
:100EA00050AF8B4240EBC25008BF20F001007047AA
:100EB0000CF0004C4CEA50207F32C2BFD2F1FF034D
:100EC00040EAC250704740F400004FF00003013A7E
:100ED00037E792F0000F00F0004C02BF400010F422
:100EE000000F013AF9D040EA0C0093F0000F01F036
:100EF000004C02BF490011F4000F013BF9D041EA58
:100F00000C0195E70CEAD15392EA0C0F08D142028A
:100F10007FF47DAF93EA0C0F7FF470AF084676E75D
:100F200093EA0C0F04D14B023FF44CAF08466EE736
:100F300030F0004C18BF31F0004CCAD130F0004204
:100F40007FF45CAF31F000437FF43CAF5FE700BF5C
:100F50004FF0FF3C06E000BF4FF0010C02E000BF85
:100F60004FF0010C4DF804CD4FEA40024FEA410327
:100F70007FEA226C18BF7FEA236C11D001B052EADD
:100F8000530C18BF90EA010F58BFB2EB030088BFA3
:100F9000C81738BF6FEAE17018BF40F00100704712
:100FA0007FEA226C02D15FEA402C05D17FEA236CF4
:100FB000E4D15FEA412CE1D05DF8040B704700BF3B
:100FC000844608466146FFE70FB5FFF7C9FF0028D2
:100FD00048BF10F1000F0FBD4DF808EDFFF7F4FF0B
:100FE0000CBF012000205DF808FB00BF4DF808EDA4
:100FF000FFF7EAFF34BF012000205DF808FB00BFC7
:101000004DF808EDFFF7E0FF94BF012000205DF8E8
:1010100008FB00BF4DF808EDFFF7D2FF94BF012099
:1010200000205DF808FB00BF4DF808EDFFF7C8FF92
:1010300034BF012000205DF808FB00BF4FEA4002EA
:101040004FEA41037FEA226C02D15FEA402C08D1CB
:101050007FEA236C02D15FEA412C02D14FF00000FD
:1010600070474FF0010070474FEA4002B2F1FE4F67
:101070000FD34FF09E03B3EB12620DD94FEA00235A
:1010800043F0004310F0004F23FA02F018BF404233
:1010900070474FF00000704712F1610F01D142021A
:1010A00005D110F0004008BF6FF0004070474FF0CE
:1010B0000000704742000ED2B2F1FE4F0BD34FF04A
:1010C0009E03B3EB126209D44FEA002343F00043BE
:1010D00023FA02F070474FF00000704712F1610FE1
:1010E00001D1420202D14FF0FF3070474FF00000B3
:1010F000704700BF40F0BF60024B40F40030D86042
:10110000704700BF00ED00E0C3785BB901210378B0
:1011100014485A0903F01F03203201FA03F340F880
:1011200022307047104B0F21DA6870B4D24301248B
:1011300085784378C2F30222C2F1040621FA02F252
:101140002A40B34001781343064A1B0101F01F05F2
:101150005018DBB2AC4080F80033490942F8214016
:1011600070BC704700E100E000ED00E0837933B32C
:1011700030B404681B4BE1431D6802790D401D60CB
:101180005D6802F180422940596002F5823215689B
:1011900041792C43146002689C68D04304409C60F1
:1011A000DC68102900EA0400D86013D030BC01F1DB
:1011B000804303F5823319680A431A607047037944
:1011C000016803F1804303F582331A6822EA0102C1
:1011D0001A607047996830BC11439960D9680A4316
:1011E000DA60704700040140054B1A685B690340F0
:1011F00004D0024214BF01200020704718467047F7
:1012000000040140014B5861704700BF00040140D9
:10121000024B0349034A59605A607047002002405C
:1012200023016745AB89EFCD3849CB6813F0010F37
:10123000CB6803D15B0738D502207047DB072CD47D
:101240004FF43023314AD168490705D50220013BCC
:10125000002B08BF05207047D268D2061AD4012B94
:1012600021D02A4A136943F00203136150611369C4
:1012700043F040031361D36813F0010FD36819D111
:101280005B073BD5022041F6FD71204A13690B40F4
:10129000136170470320013BDAE71D4BCA68D20790
:1012A000D0D5013BFAD105207047CB68D906D8D5F7
:1012B00003207047D90709D4D3685B07E2D4D36809
:1012C00013F0100F14BF03200420DCE7104BD1688B
:1012D000C90708D4D168013B490708D50220002B73
:1012E00008BF0520CFE7013BF1D10520CBE7D2684D
:1012F00012F0100F14BF03200420F0E7D36813F09E
:10130000100F0CBF04200320BDE700BF00200240E7
:10131000FFFF0A0010B4394CE36813F0010FE368D3
:1013200004D15B0738D5022010BC7047DB0729D4F5
:101330004FF40053314AD468640705D50220013BBD
:10134000002B08BF0520EFE7D268D20617D4012B87
:101350001FD02A4A136943F0010313610180D36847
:1013600013F0010FD3681CD15B073FD5022041F673
:10137000FE71224A10BC13690B40136170470320B1
:10138000013BDDE741F6FF73E268D207D2D5013BAE
:10139000FAD1052010BC7047E368DC06D9D50320DC
:1013A000C2E7D90709D4D3685B07DFD4D36813F049
:1013B000100F14BF03200420D9E741F6FF73D16852
:1013C000CC0708D4D168013B490708D50220002B7F
:1013D00008BF0520CBE7013BF1D10520C7E7D26864
:1013E00012F0100F14BF03200420F0E7D36813F0AD
:1013F000100F0CBF04200320B9E700BF00200240FB
:1014000030B4CD78EB0648BF8B7805F00F0448BFA9
:101410001C430B8813F0FF0F32D0482D026800F0F8
:101420008180282D00F0B680D90744BF22F00F023A
:101430002243990744BF22F0F00242EA04125907FE
:1014400044BF22F4706242EA0422190744BF22F426
:10145000704242EA0432D90644BF22F4702242EAC2
:101460000442990644BF22F4700242EA045259062B
:1014700044BF22F0706242EA0462190671D402602D
:10148000FF2B30D9282D42682FD0482D6CD0D9059C
:1014900044BF22F00F0222439D0544BF22F0F00218
:1014A00042EA0412590544BF22F4706242EA04225F
:1014B0001D0544BF22F4704242EA0432D90444BFFD
:1014C00022F4702242EA04429D0444BF22F47002D6
:1014D00042EA0452590444BF22F0706242EA0462B4
:1014E0001D043BD4426030BC7047D90500F1D68062
:1014F0009D0500F1CB80590500F1C0801D0500F16C
:10150000B580D90400F1AA809D0400F19F805904A0
:1015100000F194801B04E5D54FF4004364F31F727F
:101520004361DFE7D90700F1E380990700F1D98033
:10153000590700F1CF80190700F1C580D90600F1E5
:10154000BB80990600F1B180590600F1D7801906D9
:1015500095D5802164F31F72016190E764F31F72D7
:10156000C0E764F31F728AE7D90548D49D053ED4CD
:10157000590534D41D052AD4D9044FD49D0445D42B
:10158000590453D41D04ADD54FF4004364F31F72C6
:101590000361A7E7D90700F1E280990700F1D8803D
:1015A000590700F1CE80190700F1C480D90600F177
:1015B000BA80990600F1B080590600F1A68019069C
:1015C0007FF55DAF802164F31F72416157E74FF4EF
:1015D000006122F4704242EA04320161CCE74FF428
:1015E000806122F4706242EA04220161C2E74FF492
:1015F000007122F0F00242EA04120161B8E74FF4F0
:10160000807122F00F0222430161AFE74FF40051D5
:1016100022F4700242EA04520161B1E74FF48051B2
:1016200022F4702242EA04420161A7E74FF48041AC
:1016300022F0706242EA04620161A3E74FF4804144
:1016400022F0706242EA0462416163E74FF40051A4
:1016500022F4700242EA0452416158E74FF480518B
:1016600022F4702242EA044241614DE74FF40061E6
:1016700022F4704242EA0432416142E74FF4806151
:1016800022F4706242EA0422416137E74FF40071AC
:1016900022F0F00242EA041241612CE74FF480711B
:1016A00022F00F022243416122E7202122F470023E
:1016B00042EA0452016147E7102122F4702242EA13
:1016C000044201613DE7082122F4704242EA0432FB
:1016D000016133E7042122F4706242EA04220161CD
:1016E00029E7022122F0F00242EA041201611FE719
:1016F000012122F00F022243016116E7402122F06E
:10170000706242EA0462016121E7402122F07062C6
:1017100042EA0462416152E7202122F4700242EA67
:101720000452416148E7102122F4702242EA044247
:1017300041613EE7082122F4704242EA04324161ED
:1017400034E7042122F4706242EA042241612AE76C
:10175000022122F0F00242EA0412416120E7012155
:1017600022F00F022243416117E700BF806880B278
:10177000704700BFC06880B2704700BF016170470A
:10178000416170470AB9416170470161704700BF0C
:101790000028194B00F44012B4BFDB695B68B2F556
:1017A000401F30B484B21ED0C20213D50322C0F34E
:1017B0000345AA4023EA020343F0706319B1420DC6
:1017C0001201944023430C4A0028B4BFD3615360F4
:1017D00030BC7047420D120104FA02F223EA020300
:1017E00043F07063EAE7044D23F070636A6822F007
:1017F00070626A60E2E700BF0000014010B40F248D
:1018000001F0FC0303F1804303F5803301F0030191
:101810009A6889008C4022EA04029A609A6800FA69
:1018200001F11143996010BC704700BF014B186073
:10183000704700BFD8004242044A936919B923EAAD
:10184000000090617047184390617047001002409B
:10185000044AD36919B923EA0000D06170471843DC
:10186000D061704700100240274A038890429BB223
:1018700012D002F5006290420ED0B0F1804F0BD032
:10188000A2F59832904207D002F58062904203D0D0
:1018900002F58062904203D14A8823F0700313431B
:1018A0001A4A904227D002F58062904223D070B449
:1018B00023F44073CE888D880C889BB202F58C325D
:1018C000334390420380858504850ED0104B9842A7
:1018D0000BD003F54063984207D003F5806398422C
:1018E00003D003F58063984201D10B7A038601236C
:1018F00070BC8382704703808B8883850B88038547
:1019000001238382704700BF002C0140001000407B
:1019100000340140028CF0B422F001021204120CD7
:101920000D890284038C4E888488028B23F0020385
:1019300035431B0422F07302184E1B0C12040F884F
:101940002B43120CB0429BB2A4B242EA070215D05C
:10195000134DA84212D005F54065A8420ED005F5FA
:101960008065A8420AD005F58065A84206D0C988DE
:1019700084800283F0BC8186038470474E898D8900
:10198000CF8923F00803334324F440748E883D4309
:1019900023F004032C433343A4B2E8E7002C0140B6
:1019A0000034014000234FF6FF720360426003726F
:1019B000704700BF038829B923F001031B041B0CE7
:1019C000038070479BB243F001030380704700BF60
:1019D000B0F8443021B9C3F30E03A0F84430704787
:1019E0006FEA43436FEA53439BB2A0F84430704719
:1019F00083899BB21AB923EA010181817047194397
:101A000081817047038B23F008031B041B0C1943CF
:101A100001837047C94389B201827047F0B5102431
:101A2000032783B002AD124E01210820FFF704FF07
:101A300025F8044D294630468DF807408DF806708C
:101A4000FFF7DEFC01210820FFF7F6FE08232946F8
:101A50003046ADF804308DF806708DF80740FFF77A
:101A6000CFFC21463046FFF78BFE03B0F0BD00BF30
:101A7000000C014008B50348FFF77CFEC0F30010DE
:101A800008BD00BF000C014010210148FFF778BEDF
:101A9000000C014010B5094C637823B920B143060E
:101AA00007D40023237310BD10210548FFF768FEFB
:101AB000F7E710210248FFF761FEF2E76C1B0020F8
:101AC000000C014038B50D4C2378022B04D005469C
:101AD00004F040FA637803B138BD25B16B0607D432
:101AE0000023237338BD10210548FFF749FEF7E7AF
:101AF00010210348FFF742FEF2E700BF6C1B0020F5
:101B0000000C01400B4B0C4910B45C1C091B03F585
:101B10008060CA5C03F8012F9842FAD123780A2B1F
:101B200006D04FF48062FF21044810BC09F003B9CD
:101B300010BC7047BB16002001FC0108BC16002039
:101B4000014B185C704700BFBC160020014B1954B4
:101B5000704700BFBC1600202DE9F0410646002A60
:101B600040D00023214F441E3C448D18002B4FEAE7
:101B7000D31318BF012311F8010B0344A942DBB2B0
:101B800004F8010FF2D116441948BB55FFF74CFB7E
:101B9000042801D0BDE8F0814FF6FF77154D144CB5
:101BA000DFF85480AE1E35F8041CB94202D020463E
:101BB000FFF7B0FB3188A01CB94204F1040409D03E
:101BC000FFF7A8FB444505F1040506F10406EAD138
:101BD000BDE8F081444505F1040506F10406E2D1B3
:101BE000BDE8F0811346014FCEE700BFBC160020D0
:101BF00000FC0108C016002000000208F0B4CAB1C1
:101C000000230E4F4D1E3D448618002B4FEAD31380
:101C100018BF012315F8014F00F8014B2344B042CF
:101C2000DBB2F2D11144785CF0BCC01AB0FA80F09B
:101C3000400970471346014FF5E700BFBC1600206E
:101C400008B500215C22074809F075F80649002014
:101C500005F0F6FC00B108BD0720BDE8084004F01F
:101C600063BC00BFBC1A0020EC1A002001490248E6
:101C700007F00ABD981B0020D81A00202DE9F04F6C
:101C80000746DFF89882502200219FB0404609F0B5
:101C900052F89E4B03CB1C889A78C8F80100C8F80C
:101CA0000510A8F8094088F80B203B78242B00F099
:101CB0001C81102300220B93042309920A934FF0F6
:101CC000000917F802A08DF853204C46CDF820905B
:101CD000CDF81890CDF81C90BAF1000F00F0E78015
:101CE000AAF14105EBB2192B00F2A282531C0DF1AF
:101CF000530115AA38468DF8533002F0ABF800288E
:101D000000F09B82DDF854B05846FFF7D3F9C6B215
:101D10003046FEF779FF01465846FEF7BFFE7C4984
:101D2000FEF7C6FF09F0C4F8BAF1470F82B224D01B
:101D3000BAF14D0F40F08580002A40F0B4821E2E8B
:101D400000F2028101227349B2400A4240F09880B9
:101D500012F4407F40F0BE8012F0380F00F0F480A3
:101D6000042E00F00082052E00F08082032E00F089
:101D700001824FF480520C238BE05E2E00F2E4804F
:101D8000DFE816F0CE00CE00CE00CE005301E20018
:101D9000E200E200E200E2000D01E200E200E20007
:101DA000E200E200E2001F011F011F01070107011D
:101DB000E200E200E200E200E200E2000D01E200E7
:101DC0000D01E200E200E200E200E200E200E200D7
:101DD000CE00E200F200E200E2002501E200E200B3
:101DE000E200E200E2002501E200E200E20053012D
:101DF000350135013501350135013501E2003B0181
:101E0000E200E200E200E200E200E200E200E200C2
:101E1000E200E200E200E200E200E200E200E200B2
:101E2000E200E2003F01E200E200E200E200E20044
:101E3000E200E200E200E200440144010D014D0134
:101E40004D01192D00F28080DFE815F07901830142
:101E50007E007E007E00FC007E007E000E011F01E1
:101E6000280131017E0036017E003E017E004301E3
:101E700048014E017E007E007E005B0165016F011E
:101E8000002E66D0012E3DD04FF400620B2388F85F
:101E9000086044FA03F3D80700F1FF8114439DF86A
:101EA000532017F802A0BAF1000F7FF419AF069B78
:101EB00023B1079B002B08BF0223079319F0200FC3
:101EC00000F06A81144BD8F828209A4240F36481CC
:101ED0001B243AE0082E55D0092E41D100234FF49F
:101EE000005288F809300D23D3E7012388F8013028
:101EF0000993112300220B93052388F802200A93EB
:101F00000322DCE64FF400620B23C2E7BC1A002078
:101F10000000C8420700004080969800181B00206F
:101F2000079B002B40F01383262E88F8016040F0B9
:101F3000B681A2F114039BB21E2B05D8C64921FA23
:101F400003F3DE0700F11D81142420461FB0BDE815
:101F5000F08F03234FF4006288F808300B2398E7D2
:101F60004FF400520D2394E70721002A40F09B8193
:101F700044FA01F3DD0700F1908101238B401C43FB
:101F8000A4B28CE740234FF4005288F809300D23A7
:101F90007FE7C6F1150388F803300621E5E7002A3C
:101FA00040F07381079B002B40F0D1821C2E88F8F3
:101FB000006000F07F811E2E00F07C8101230793DA
:101FC0003BE0A6F1110388F805300221CDE7079B1D
:101FD000002B40F0BC82312E00F06F810A2AB3D171
:101FE000012388F80630032308210793C0E7A6F1F0
:101FF000360388F807300921B7E7002AA4D10A215F
:10200000B6E75023012188F80130AEE7002A40F0FE
:102010003481A6F15A0388F804300321A8E7C6F1F9
:102020005E0388F8023005219FE71C2E88F80060C7
:1020300000F008811E2E00F005815C2E00F0028168
:10204000002192E701250023C8F80CB049FA03F3F8
:10205000DA0715D458460021FEF7C8FF002840F0E3
:10206000588145EA09091AE7089B022543F0010354
:1020700008930123C8F810B049FA03F3DB07F0D541
:10208000192420461FB0BDE8F08F089BC8F814B093
:1020900043F00203089304250223EDE7089BC8F8E8
:1020A00018B043F00403089308250323E4E788F8F5
:1020B000246010250423DFE75846FEF7D5FF2025CE
:1020C000C8F828000523C1E7C8F82CB0402506232E
:1020D000BCE7C8F830B080250723CDE7C8F834B096
:1020E0004FF480750823B1E75C495846FEF79CFF22
:1020F000002840F0918288F838604FF40075092379
:10210000A4E7069BC8F83CB043F0010306934FF4E4
:1021100080650A23B0E7069BC8F840B043F002038D
:1021200006934FF400650B23A6E7069BC8F844B05E
:1021300043F0040306934FF480550C239CE7069B61
:10214000C8F848B043F0080306934FF400550D2338
:1021500092E7069BC8F84CB043F0100306934FF487
:1021600080450E2388E720234FF4805288F80A30F8
:102170000C238EE610234FF4805288F80A300C238B
:1021800087E6374B0121A3FB0223DB08763B88F867
:10219000013002230793EBE6099B002B40F085807A
:1021A00098F80230012B00F00D812E4B5B783BB983
:1021B00019F0010F40F0A0802A4B1B69C8F80C30C1
:1021C00019F4807F03D1274BDB68C8F8343098F8C6
:1021D0000050042D00F0B18098F80530002B00F07D
:1021E000A380012B40F09780002602270F93052340
:1021F0000E960D970C9398F80330012B00F0A380F6
:10220000079B032B00F0D380DFF85CC00DF1640E58
:10221000BCE80F00AEE80F00DCF80030CEF800306C
:10222000A3055ED598F8070006284ED91D248CE634
:10223000012420461FB0BDE8F08F022420461FB0C5
:10224000BDE8F08F12B10A2A7FF47EAE331888F809
:10225000003000218CE600BF0104104000007F43E5
:10226000CDCCCCCCBC1A0020EC1A002000234FF4BB
:10227000805288F80A300C230BE60A2A7FF464AEF9
:102280005A2E3FF461AE042172E61C2E88F80060DD
:10229000D9D01E2E7FF4D1AED5E7152455E6022302
:1022A0000121079361E617244FE619F0010F23D1AE
:1022B00016244AE601230793C8E79DF81C3008213D
:1022C00088F806300323079352E6A44B9B79834298
:1022D00007D019A905F0B4F9002800F0368198F864
:1022E00000500A2D00F005815C2D7CD1069B002B4F
:1022F00040F03A811A2428E698F80330012B7FF445
:102300005FAFD8F80C009649FEF7D2FCC8F80C0075
:1023100056E7042419E60623022601270C9300231E
:102320000E960D970F9366E71F460D930323012624
:102330000C9302230E960F935DE719F0400F40F0C7
:1023400008811C2401E6069BD90707D5D8F83C0074
:102350008349FEF7ADFC069BC8F83C009A0707D5F9
:10236000D8F840007E49FEF7A3FC069BC8F8400061
:10237000580707D5D8F844007949FEF799FC069B21
:10238000C8F84400190707D5D8F848007449FEF783
:102390008FFC069BC8F84800DA067FF531AFD8F805
:1023A0004C006F49FEF784FCC8F84C0028E798F809
:1023B0000630012B7FF428AF069B042B3FF424AF9B
:1023C0002524C2E5079B022B7FF4FAAE98F8013072
:1023D000502B3FF4F5AE002B3FF4F2AE19F0010F95
:1023E0003FF466AFECE6079B032B5BD0069A002A0E
:1023F00058D05A4998F80430D1F858A0002B40F032
:102400003F81352D134600F01281D10740F1E9815B
:10241000D8F83C101998FEF743FB504B596CFEF767
:102420003FFB069BC8F83C009A0740F1D581D8F8DD
:1024300040101A98FEF734FB484B996CFEF730FBBE
:10244000C8F84000069B5B0740F17781D8F844103C
:102450001B98FEF725FB414BD96CFEF721FB51463B
:10246000FEF71EFBC8F84400069B180740F1C28225
:10247000D8F848101C98FEF713FB384B196DFEF77F
:102480000FFBC8F84800069BD90640F168811D99EA
:10249000D8F84C00FEF704FB304B596DFEF700FBFB
:1024A000C8F84C001E2D00F04D81352D00F0E18064
:1024B0001C2D00F0A88198F80150502D00F0938257
:1024C0004FF0000A079B022B00F01881099A002A9E
:1024D00000F0A98029F021091FFA89F3079919B1A1
:1024E00023F4F8491FFA89F3002B00F0808124249B
:1024F0002BE5069B002B3FF4FDAE19F0500F3FF487
:1025000020AFD8F82C00FEF7D5FDC0B206283FF664
:102510008DAE98F82430142B06D0022B7FF414AD26
:1025200019F0800F7FF410AD29F050091FFA89F9D6
:10253000002800F0D78201385FFA80FA0949504636
:1025400005F07EF8002840F0AA820724FDE4182454
:10255000FBE429F040091FFA89F93DE6BC1A002086
:102560003333CB41281B0020AB4B9D6D069BD90715
:1025700040F10981A84B1999D869FEF78FFAD8F86C
:102580003C10FEF78BFAC8F83C00069B9A0740F116
:10259000F580A14B1A99186AFEF780FAD8F8401016
:1025A000FEF77CFAC8F84000069B5B0736D59A4BCD
:1025B0001B99586AFEF772FAD8F84410FEF76EFAC3
:1025C0002946FEF76BFAC8F84400069B1D0740F148
:1025D000D080914B1C99986AFEF760FAD8F84810A1
:1025E000FEF75CFAC8F84800069BD80640F1BC80AC
:1025F000894B1D99D86AFEF751FAD8F84C10FEF7AE
:102600004DFAC8F84C004FF0000A98F80150502DD0
:102610007FF458AF1F2498E4262496E47E4BDB6CAD
:10262000C8F84430D1E77D4B09EA030356E7DA07DF
:1026300004D4794BDB69C8F83C30069B9D0704D471
:10264000754B1B6AC8F84030069B580704D4724B80
:102650005B6AC8F84430069B190704D46E4B9B6A2A
:10266000C8F84830069BDA0603D46B4BDB6AC8F81F
:102670004C3098F80150012D7FF622AF1E2464E4FF
:10268000352D1346D3D0DB0740F1C881624BD8F813
:102690003C10D869FEF704FAC8F83C00069B98077E
:1026A00040F1B7815C4BD8F84010186AFEF7F8F992
:1026B000C8F84000069B590740F1A681564BD8F850
:1026C0004410586AFEF7ECF9C8F84400069B1A0754
:1026D00040F19581504BD8F84810986AFEF7E0F920
:1026E000C8F84800069BDB0639D54B4BD8F84C00A0
:1026F000D96AFEF7D5F9C8F84C00D3E6ADB1002190
:10270000D8F80C00FEF768FC00287FF4D1AD8C2DC2
:1027100000F0468200F23C82022D00F00982032D77
:1027200000F00882012D7FF4D1AE069B099A002BA0
:10273000079B08BF00230793C9E6374B5B6AC8F8BD
:10274000443091E63649072004F07AFF00283FF430
:10275000FCAE069BE3B9099A9A460793B7E62E4B5F
:10276000DB6AC8F84C309DE62B4B5B6DC8F84C30EB
:1027700049E7294B1B6DC8F8483035E7264B9B6C61
:10278000C8F8403010E7244B5B6CC8F83C30FCE6DE
:10279000DD0704D4204BDB69C8F81030069B98078E
:1027A00004D41D4B1B6AC8F81430069B590704D487
:1027B000194B5B6AC8F81830069B1A0704D4164BED
:1027C0009B6AC8F81C30069BDD063FF51CAF124B18
:1027D000DB6AC8F8203016E70F4B1B6AC8F8403098
:1027E00030E60D4BDB69C8F83C3013461CE6169307
:1027F00017931893B2B124F04904002C00F0CD8255
:102800001024FFF7A2BB0649062004F019FF002898
:102810003FF49BAE9DE700BFBC1A0020DEFCFFFF2B
:10282000281B0020B14B93F868309C0714D598F80A
:102830000130013B022B04D9099B43F04003DBB27A
:102840000993069B1BB1079B022B00F02081A84B2C
:102850005B7A102B00F0C182099B03F04004A4496D
:10286000D8F8282098F802308A614B7013B10823F9
:102870008DF86030D8F80C309D4AD8F83450D068C4
:10288000294613611693FEF7A7FB002800F0CB80C2
:10289000099B980600F1C780954B587A04B91795A3
:1028A00098F80A3098F83820914983420A7507D081
:1028B0001846179905F072FA98F80A308C4A537244
:1028C0008B4A9DF86030527A98F809001343884A81
:1028D0008DF86030127A824209D0FFF7F3F898F849
:1028E0000930834A13B1127A1343814A1372804A22
:1028F0009DF86030117A98F800200B43042A8DF877
:10290000603000F0458298F80330794998F8052046
:102910008B70079B0A71032B00F02482744B98F88C
:1029200007609B79B34209D0724D19AC0FCC0FC52B
:10293000236805F83A6C2B6006F09CFE98F800308E
:1029400098F804206A49262BCA7000F0588240F299
:102950006B825C2B00F0FD81662B00F08280282BBF
:102960007AD098F80130624A502B137003D0079A3E
:10297000022A00F09E8298F808405D4BDC71002C22
:102980003FF4E3AA03F0E6FA594BDB79032B74D04A
:102990000121002464225648574B017019780471B4
:1029A0000229C47044708471447204721A725A729B
:1029B0009A7210D000F13001204604F041FE002848
:1029C0003FF4C3AD06F056FE2046002105F05CF949
:1029D0002046FFF75FF8082003F0DAFD0024444B9F
:1029E000DC71FFF7B2BA069B002B7FF413AE099A95
:1029F0009A466CE53E4B9B6AC8F8483043E53C4B31
:102A00009B6AC8F848306DE6394B5B6AC8F84430B9
:102A10005CE6374B1B6AC8F840304BE6344BDB6949
:102A2000C8F83C303AE6324B587A50B1099B190647
:102A300007D44CB1002105F0B1F92D4BD8F8345032
:102A4000587A2B4BDD6029E7294605F0A7F9284B7A
:102A5000D8F83450587AF4E72849072004F012FDDA
:102A60007FE70023264AA2F144014B645360936040
:102A7000D360136106F0FEFD73E71F4B1B78022B3A
:102A8000ACD0082006F0C6FE03F07CF8A6E7099B50
:102A900063F07F03DBB2099303F04004DFE698F8AC
:102AA000243001221093124BDFF850B09B6D12942A
:102AB00011930023139714465F46B3461E46114DEB
:102AC000069B43FA06F1C80704D5109B142B1BD0B4
:102AD000E96A2960052C27D00134E4B201360437B5
:102AE0000435EDE798F807A028E500BF301D002069
:102AF000BC1A0020EC1A00206C1B0020D81A002001
:102B0000001B0020281B0020B96A3868FDF7C6FFAB
:102B1000E96AFDF7C3FF022E2860DBD11199FDF7AA
:102B2000BDFFC8F81800D7E7129C139F5E466CE5FE
:102B30000A9B0993069B002B3FF4DCAB0C9A1342D3
:102B400002D12024FFF701BAAF4B08EB870203EB59
:102B50008703D969D06BFDF7A1FFAB4B08EB860269
:102B600003EB86038346D969D06BFDF797FF19F015
:102B700080050A905BD029F080091422A349A4485B
:102B80001FFA89F908F0C8F818BB2124FFF7DDB94E
:102B90008E2D05D002D38F2D7FF498AC0B9B09931B
:102BA00005F17203DBB2012B04D8099B43F0080343
:102BB000DBB20993069B002B3FF49CAB1422934994
:102BC000934808F0A9F80028DFD0099B03F0010220
:102BD0007DE498F80330012B06D1D8F830008D49F8
:102BE000FEF766F8C8F83000D8F830100846FEF74F
:102BF0005FF84FF08141FEF75BF8594605465846AD
:102C0000FEF756F801462846FDF748FF05460A98A4
:102C10000146FEF74DF801462846FDF73FFF00212B
:102C20000546FEF7E3F948B12224FFF78EB9089B69
:102C30000C9A134249D12324FFF787B9284608F09C
:102C40009BF90A990546584601F0D4F905F100456B
:102C500001462846FEF7E0F898F801300546032BB8
:102C6000D8F8303008BF00F100450021184608931D
:102C7000FEF7BCF9089B28B103F1004305F10045BC
:102C8000C8F830300A992846FEF712F8014658462F
:102C9000FDF704FF4FF07C51FEF70AF8023708EB0E
:102CA0008707B86059462846FEF702F80A99FDF7EB
:102CB000F7FE4FF07C51FDF7FBFF0236099B08EB56
:102CC000860603F00102B06001E498F8033029F0B1
:102CD0000E09012B1FFA89F900F0B980B51C08EB29
:102CE0008505A9680A98FDF7D9FE0646023708EB64
:102CF0008707B9685846FDF7D1FE314601F07AF9E9
:102D0000A9680646B86801F075F9074630463946A5
:102D1000C8F83070FDF7C2FE20F0004528463E4955
:102D2000FEF782F900283FF450AF4FF07C5128465F
:102D3000FEF77AF900287FF428AF38493846FDF7C6
:102D4000B7FF01462846FEF76FF900287FF41DAF54
:102D50003BE72E4D324C0FCD0FC42B68236006F09D
:102D600089FCFEE598F806304B7113B90023C8F8CA
:102D70004430D8F84440244B2146986DFEF72CF996
:102D800000287FF4CBAD204B9C6506F073FCC5E5B5
:102D9000D8F82C0000F05EFFB5E598F80030352B30
:102DA00002D0002B7FF42CAD174A174B117A5B7AB7
:102DB000D2680B4316A81B498DF86030179200F0BB
:102DC000D9F8044600287FF4C0A8104E104D0FCE4D
:102DD0000FC533682B60FFF7B8B80B4B099A1B7807
:102DE000013B022B13467ED812F040043FF437AD6E
:102DF00043F02003DBB2099303F040042FE50449BC
:102E0000062004F03FFBACE5BC1A0020541B002058
:102E1000D81A00203333CB410AD7A33B6F12833A31
:102E2000001B0020181B00201C2B2BD01E2B29D090
:102E30000A2B7FF496AD4849504604F023FB474BDC
:102E40009B7953457FF48DAD434D454C83E7424B11
:102E50000B9626461C46434A089B43FA05F111F09F
:102E6000010F05F1010506D0114620680C92FDF70F
:102E70001FFF0C9A2060052D04F10404ECD13446A8
:102E80000B9E2BE79DF8603043F001038DF8603016
:102E9000079B1BB116A9344800F0A4FC2E4D334CFF
:102EA00016A92D4800F09EFC0FCD0FC42B6823609F
:102EB00057E5012B48D0002B39D0023B012B1FD9FD
:102EC0009DF86030284C43F00403099A16A9204667
:102ED0008DF8603000F0FAFE50B9244D0FCC0FC5CC
:102EE00023682B6047E512F040047FF4B8AC7FE71D
:102EF00001287FF440AD1E491C4806F0C5FB3AE5A9
:102F0000099B194CC3F3800304930F9B174D039344
:102F10000E9BD8F8306002930D9B16A901932A46A8
:102F2000A4F12C032046009600F092FCD6E79DF811
:102F300060300D4C43F0010316A920468DF8603037
:102F40000A4D00F04FFCC9E7074C16A9204600F0D7
:102F500049FC064DC2E700BF281B0020BC1A002018
:102F6000EC1A00203333CB41541B0020D81A002028
:102F7000981B002070B50546037AC86843F0040327
:102F8000124A28602B7292F8683001F13C049B06CB
:102F900006D5204606F0A2FB10B10F24204670BDD6
:102FA0000B4E2046294600F01DFC347814B1002455
:102FB000204670BD01F05CFA0028F8D02023337061
:102FC00005F084FB04F0A0FF204670BD301D0020FA
:102FD0006C1B002030B5012185B009204FF47844E6
:102FE000FEF72AFC4823032204A9234D21F8104DA3
:102FF00022488DF803308DF80220FEF701FA95F88B
:1030000068301B0706D44FF480721D4BC3F8842030
:1030100005B030BD642000F0DDFF0C210120FEF77B
:10302000EDFB0D210120FEF7E9FB0E210120FEF74B
:10303000E5FB0F210120FEF7E1FB0B210120FEF74C
:10304000DDFB95F86830002213F0400F14BF082113
:103050000C21012302A88DF80D108DF80C208DF89D
:103060000E300294FEF782F8064B04A840F80C3D9F
:10307000FEF74AF805B030BD301D0020000C0140BD
:1030800000E100E0280202014FF48072014BC3F816
:103090008420704700E100E010B51748FEF766FB9A
:1030A000164B93F868305B065CBF80F4784080B2C2
:1030B00000B3134A13885488184207BF0023022123
:1030C00003210123204208BF1946948841F00403DC
:1030D000204208BF0B46D48803F0FF03204243F090
:1030E000080118BF0B46118943F01002084214BFB3
:1030F0001046184610BD00BF000C0140301D0020D6
:10310000CCC0000808B54FF48050FEF76DF80028D9
:103110003BD14FF40050FEF767F888BB4FF4804076
:10312000FEF762F838BB4FF40040FEF75DF8E8B9EF
:103130004FF40060FEF758F898B94FF48071154AC3
:10314000154BC2F884111B78012B02D0134B1B784E
:1031500003B108BD00F04EFEBDE80840012006F0B6
:103160006DBB4FF40060FEF74DF8E6E74FF400400A
:10317000FEF748F8DCE74FF48040FEF743F8D2E76B
:103180004FF40050FEF73EF8C8E74FF48050FEF7CA
:1031900039F8BEE700E100E06C1B0020AC1B00200A
:1031A0002DE9F04FDFF8C08297B098F8013013B1E5
:1031B00017B0BDE8F08F07460625A44C089061685B
:1031C00020680BAA03C2268907F0010410930E930E
:1031D0000F9304F0FF0316808DF840500993002CE4
:1031E00040F0F9804FF00009994F089BC3F340036A
:1031F000079353B19749386CFDF75AFD05460146D0
:103200004846FDF707FF00B9A946089BC3F38003B2
:10321000069353B18F49786CFDF74AFD0546014688
:103220004846FDF7F7FE00B9A946089BC3F3C00363
:10323000059353B18749B86CFDF73AFD0546014641
:103240004846FDF7E7FE00B9A946089BC3F3001303
:10325000049353B17F49F86CFDF72AFD05460146FA
:103260004846FDF7D7FE00B9A946E3B203933B6F8A
:103270004A461946042301248946DFF8E4A1764D25
:10328000764E0193764911A8029206F0FDF9039B50
:10329000029A002B00F090810021B7F86A30CAF83A
:1032A0000010DB0740F19E81002C40F09E811192BE
:1032B00002210120BDF82CB0079B83B10023B7F891
:1032C0006A00CAF80430800740F18581002C40F084
:1032D000858112920846BDF82EE04BEA0E0B069B44
:1032E0008BB10023B7F86A1001304907C0B2CAF8A1
:1032F000083040F17E81002C40F07E811392BDF8B1
:1033000030104BEA010B059B8BB10023B7F86A1014
:103310000130CAF80C300B07C0B240F15581002CC7
:1033200040F055811492BDF832104BEA010B049B1A
:103330008BB10023B7F86A100130C906C0B2CAF8D1
:10334000103000F13D810CB902F100421592BDF838
:1033500034204BEA020BFDF753FC07F00DFEA8F8F2
:1033600006B001464846FDF7A3FC0EA90E9011A831
:1033700001F06CF9042288F8042005F0A7F904F0A4
:10338000C3FDDFF8E890002C72D105F09FF92B788F
:1033900013F0340F40F0C78040F20F231BEA030FF5
:1033A000F1D105F00BF8B7F8740000F013FE84F0CB
:1033B0000103FCB92B49B86F0293FDF779FC019B1F
:1033C0000246591E11F0FF030193D7F86C90029B3F
:1033D00019D01C4656E71E4F1E49F86BFDF768FCD6
:1033E00000218146FDF716FE00287FF4FEAE4FF067
:1033F0000009FAE6019AD7F87090511E11F0FF010A
:10340000BA6F0191E5D1099B13B10023CAF80030CE
:10341000079B13B10023CAF80430069B13B10023A5
:10342000CAF80830059B13B10023CAF80C30049B7E
:1034300013B10023CAF810300023184688F804306E
:1034400003F072F817B0BDE8F08F00BFD8C00008D5
:10345000301D00200000C0BF811B0020CCC0000830
:10346000981B00200000A0406C1B0020000C0140B5
:103470004846FEF77BF997F868305B065CBF80F43E
:10348000784080B2002864D033887288184214BF14
:10349000012300231042B28818BF43F002031042F8
:1034A000F28818BF43F004031042328918BF43F07A
:1034B00008031042BDF82C2018BF43F010031BEA8C
:1034C000020F03D0D80748BF2BEA020BBDF82E200D
:1034D0001BEA020F03D0990748BF2BEA020BBDF885
:1034E00030201BEA020F03D0580748BF2BEA020B1B
:1034F000BDF832201BEA020F03D0190701D52BEAD1
:10350000020BBDF834201BEA020F03D01B0918BFC1
:103510002BEA020BA8F806B005F0D8F82B7813F0C8
:10352000340F3FF439AF95F800905FFA89F919F03C
:10353000100F65D119F0200F0DD18CB119F0040FC7
:1035400062D1364B1B78002B62D1042006F06CF957
:1035500027E70346D5E7072006F070F9002CEDD1E8
:103560002F48FEF703F997F868305B065CBF80F4DC
:10357000784080B20028E4D033887288184214BFA3
:10358000012300231042B28818BF43F00203104207
:10359000F28818BF43F004031042328918BF43F089
:1035A00008031042089A18BF43F010031A42C8D00B
:1035B000082006F043F9C4E79B46184601217BE644
:1035C000002C3FF4C3AEBFE6002C7FF4ABAE02F19B
:1035D00000411491A7E6002C7FF47BAE02F100407D
:1035E000129077E6002C7FF462AE02F10043119353
:1035F0005EE6002C7FF482AE02F1004113917EE67C
:10360000062006F01BF995E7092006F017F998E760
:1036100000F0F0FB02F0B6FACAE500BFAC1B0020D8
:10362000000C014010B506F059F8C8B101230D4C4B
:103630002078E370082808D000F0DCFB022006F0B8
:10364000FDF8BDE8104002F09DBA06F0E3F802E094
:103650002378002BF0D002F095FA6378002BF7D096
:1036600010BD00BF6C1B00202DE9F04F012183B07D
:103670001020FEF7E1F84FF400501023022202A9B7
:1036800021F8040D00F1804000F570408DF80730FE
:103690008DF80620FDF7B4FE07F06AF807F074F81D
:1036A00006F01AFEFDF7B4FDFEF72CFA2D494FF097
:1036B00064080A682C4D22F004020A6003F0B2FD8F
:1036C00004F038F904F02AFF05F06EFD00210C46E5
:1036D000264A274892F86820264EDFF8A4B0DFF883
:1036E000A4A0DFF8A490244FC2F30012016041604F
:1036F0008160C1600161214B8BF80040AC608AF8A9
:1037000000402C6089F800402A701C706C60EC60EE
:103710002C6185F8088085F8098085F80A80346076
:103720007460B460F46034613C7003F08BFEFEF7AB
:1037300087FA04F0FFF804F09FF9FEF76FF9FFF73E
:1037400049FC01F099FC00F051FE04F037FE01F055
:1037500017FAFEF78BFA02F079FF02F02BFE2A78B7
:10376000C9E700BF10E000E06C1B0020301D002006
:10377000981B0020841B0020801B0020681B002059
:10378000821B0020811B0020AC1B002042F228314C
:10379000094B30B4002501241A4601FB00F05860A3
:1037A0009D601C60136803F00113012BFAD0002305
:1037B00030BC13609360704710E000E010B5074C18
:1037C0004FF4005122780648FDF7DCFF237813F10F
:1037D000FF3318BF0123237010BD00BF000000207D
:1037E00000100140F8B5174D0E4695F868300746B1
:1037F0009906154C04D52378202B0AD0FFF712FF29
:103800002378022B05D1F8BD00F060FE38B101F03D
:10381000A3FC02F0B7F96378002BF5D0F3E7384644
:10382000314600F013FF0028EDD195F868309A0773
:10383000E9D5337ADB06E6D571681020BDE8F8409B
:1038400004F0ACBA301D00206C1B0020000000000A
:103850002DE9F04F1F4691B09DF86C40834653F818
:103860002450A300D6180F900B91284652F824102C
:103870000296FE1807920C96FDF712F99DF87060FB
:10388000079A57F82680B3001F4452F82610824644
:103890001A440390404604920D97FDF701F95146F2
:1038A000814605905BF82400FDF7F8F84946044688
:1038B0005BF82600FDF7F2F805F1004506462146C3
:1038C0002846FDF7F5F908F100480746314640461D
:1038D000FDF7EEF901463846FDF7E2F8314681463C
:1038E0002846FDF7E5F9214606464046FDF7E0F992
:1038F00001463046FDF7D2F8494607F03BFB9DF8FC
:10390000787006461A9C9DF87490002F00F0D080C5
:10391000FCF782FDA8A3D3E9002382468B46FDF77E
:1039200055F8002840F0E980DFF8B0B22146DBF816
:103930005C702046FDF7B4F83946FDF7AFF839461C
:10394000FDF7B6F907F018FB4FF07C51074620460B
:10395000FDF7AEF93146FDF7ABF9394620F00040EE
:10396000FDF75AFA07F064FAFDF7A4FB83B201935E
:10397000002B00F06B810B9B01981C7A220700F151
:10398000AE80FDF741F9074639464FF07E50FDF70E
:1039900043FA044601463046FDF78AF9079B0F9A21
:1039A00053F8291007460E9052F82900FDF776F8D3
:1039B0002146FDF77DF9394606903846FDF778F93E
:1039C000014604464FF08040FDF768F880490646FE
:1039D0003846FDF76DF9214607467E48FDF75EF84B
:1039E00001463846FDF764F9079B08904FF07C517B
:1039F000304603EB8907FDF75BF9019B0990012B2A
:103A000000F0248101264FF00009734CB9F10B0F2F
:103A100000F2E68029460898FDF74AF941468246B9
:103A20000998FDF745F901465046FDF739F8294652
:103A300082460998FDF73CF9414605460898FDF78E
:103A400037F901462846FDF729F8D046054609F121
:103A500001095FFA89F903992846FDF721F8029BCD
:103A6000059918604046FDF71BF8049B06991860FD
:103A70003868FDF715F838609BF868309B0605D567
:103A80002378202B0CD00798FFF7CCFD2378022B4E
:103A900006D151E000F01AFD002839D001F05CFB9E
:103AA00002F070F86378002BF4D011B0BDE8F08F0D
:103AB000FCF7B2FC42A3D3E9002382468B46FCF715
:103AC0007BFF00283FF430AF3FA3D3E900235046EB
:103AD0005946FCF743FBFCF78DFF064624E7FDF74C
:103AE00093F80B9B014607461868FDF7E1F80B9B1E
:103AF00024F0080418601C7246E733A3D3E90023BE
:103B000050465946FCF728FBFCF774FF06460BE7C6
:103B1000DDF82CA00798514600F098FD60B99BF89D
:103B20006830980708D59AF80830D90604D50B9B59
:103B30001020596804F032F96378002BB5D10136B2
:103B4000019AB3B29A423FF661AF9BF8683099068A
:103B500005D52378202B0FD00F98FFF763FD23782E
:103B6000022BA2D002F00EF86378002B9DD100F05A
:103B7000ADFC50B101F0F0FA02F004F86378002BCC
:103B800093D100F0A3FC0028F4D10B9C0F982146A0
:103B900000F05CFD002888D19BF868309A0784D536
:103BA000237ADB0681D510200B9B596811B0BDE844
:103BB000F04F04F0F3B800BF8DEDB5A0F7C6A0BE7E
:103BC0008DEDB5A0F7C6A03E182D4454FB21194039
:103BD000ABAA2A3E0000C0406C1B0020301D002014
:103BE0003046FDF711F80E99FDF762F8054607F02B
:103BF000EBF88046284607F087F90C9B82461B6845
:103C0000404603F1004319460A930D9BD3F80090F8
:103C1000FDF74EF8494605465046FDF749F801467E
:103C20002846FCF73DFF0A9B054619465046FDF71E
:103C30003FF8494682464046FDF73AF8014650466D
:103C4000FCF72CFF4FF00009804604E7004C7CE7AE
:103C50006C1B0020074B1B78022B09D010B50446C3
:103C600002F078F92046BDE81040002100F07AB952
:103C7000704700BF6C1B002010B50446FFF704FA24
:103C8000B4B12046FFF78CFA01F07CFF0D4B5B7856
:103C90006BB9FDF7EBFF00F073FF4FF47840FDF7D1
:103CA000B1FA4FF48072084BC3F884215A6010BDFA
:103CB0000120FFF775FA0220FFF772FA1820FFF7CC
:103CC0006FFAE1E76C1B002000E100E02DE9F04114
:103CD000434C2378022B0CD017460E46054602F0C3
:103CE00039F994F80180B8F1000F05D00220BDE841
:103CF000F0810020BDE8F081C7F3C00084F80580A2
:103D000001F0E0F901F0F2F940B1042005F096FD70
:103D100001F038FF404601F0D5F9E7E7DFF8D08041
:103D200098F86830980605D52378202B0BD02846C4
:103D3000FFF778FC2378022B05D109E000F0C6FBE1
:103D400070B301F009FA01F01DFF6378002BF5D084
:103D50000123244D02202B7005F05CFD01F012FFC1
:103D60006378002BC2D12378002BF7D12B78012B5D
:103D700028D001236371002318462B7001F0A2F9AB
:103D800001F000FF04F01AFB00F030FB00F0F8FE39
:103D900002F04EFE6079003018BF0120BDE8F081CE
:103DA0002846314600F052FC0028D1D198F86830FE
:103DB0009907CDD5337ADA06CAD57168102003F099
:103DC000EDFFC5E7FB0606D5074F084E0FCF0FC620
:103DD0003B683360CFE7052005F030FDCBE700BF3F
:103DE0006C1B0020821B0020981B0020841B0020DD
:103DF000301D002008B5144B1B78DB0600D508BD2C
:103E0000102005F007FD03F0DFFEFDF73DFE0F4A31
:103E1000137813F02C0F08D0042B0CD0032005F0DE
:103E20000DFDBDE8084004F0B1B8127912F0060F9C
:103E3000E5D0042BF2D1064B1B78002BF1D10620E4
:103E400005F0FCFCEDE700BF811B00206C1B00208F
:103E5000AC1B00202DE9F04F0C7883B0035D0444C7
:103E60002D2B65D02B2B68D04FF00008651C002649
:103E700034463746B6460CE00134E4B2082C11D87B
:103E80000EB1013F7FB20EEB8E0E03EB4E0E15F816
:103E9000013B303BDBB2092BEED9FE2B07D136B903
:103EA0000126F4E7002EF2D101377FB2EFE7002CB4
:103EB00037D08246704601919146FCF7A1FE002161
:103EC0008346FDF789F808BB791C12DA3E46224C7E
:103ED00058462146FCF7ECFEB31C5EB2721C8346CA
:103EE000F6DBFFB2C7F1FE0303F0FE031F44023707
:103EF0007FB27B1C26D04FB1184C58462146FCF7A8
:103F0000D7FE013F7FB28346002FF6D1B8F1000FF4
:103F10000BD10124A5EB0A05019B013DC9F800B0B6
:103F20001D70204603B0BDE8F08F0BF1004BF0E7A9
:103F3000A51C63784FF0010899E74FF000086378FB
:103F4000A51C94E758460649FCF7B2FE8346B8F133
:103F5000000FDED0E9E700BF0AD7233C0000204174
:103F6000CDCCCC3D70B50E461849FCF7A1FE06F04D
:103F7000EBFEFDF79FF880B2B0B1154D6B789BB9A1
:103F8000441EA4B28EB14FF6FF7608E0013C322009
:103F9000A4B2FFF7FBFBB44206D06B78ABB901F0DB
:103FA000E5F8AB789B07F1D570BD4FF6FF7601E0E1
:103FB0006B784BB9013C01F0E5FDA4B23220FFF76C
:103FC000E5FBB442F4D1EFE770BD70BD0000A04145
:103FD0006C1B002060B138B54FF6FF75441EA4B2CB
:103FE000013C0120A4B2FFF7D1FBAC42F8D138BDAF
:103FF000704700BF38B50D460146FCF759FE29460B
:1040000004462846FCF754FE01462046FCF748FDCE
:10401000BDE8384006F0B0BFF8B504464768002157
:1040200038462668A568FCF7D7FF002862D13946D4
:104030003846FCF73DFE002107462846FCF7CCFF3A
:1040400000285ED129462846FCF732FE0146384654
:10405000FCF726FD002105463046FCF7BDFF002891
:1040600055D131463046FCF723FE01462846FCF781
:1040700017FDE568074600212846FCF7ADFF00283C
:1040800043D129462846FCF713FE3946FCF708FDC4
:104090002569074600212846FCF79EFF002832D1FB
:1040A00029462846FCF704FE3946FCF7F9FC06F0E1
:1040B00063FF074601464FF07E50FCF7ADFE3146E8
:1040C0000546FCF7F5FD294620606068FCF7F0FD29
:1040D00029466060A068FCF7EBFD2946A060E06817
:1040E000FCF7E6FD2946E0602069FCF7E1FD206170
:1040F0003846F8BD002128460027FCF76DFF002850
:10410000A0D00021A3E70020CEE70020BDE70021DA
:10411000ACE700BFF8B50D680C46064600212846FE
:10412000FCF75AFF002852D129463068FCF774FE8C
:1041300020F0004528462B49FCF762FF002846D0B6
:10414000676800213846FCF747FF58B93946706860
:10415000FCF762FE20F0004739462846FCF750FF86
:1041600000283DD0A76800213846FCF735FF50B93C
:104170003946B068FCF750FE20F000473946284623
:10418000FCF73EFF50B3E76800213846FCF724FFF8
:1041900050B93946F068FCF73FFE20F00047394639
:1041A0002846FCF72DFFB8B1246900212046FCF712
:1041B00013FF50B921463069FCF72EFE20F0004471
:1041C00021462846FCF71CFF18B12846F8BD054DCE
:1041D000B6E725462846F8BD3D46E5E73D46D2E729
:1041E0003D46BFE7FFFF7F7F2DE9F04F7A4B83B05D
:1041F0001B780093002B75D0784A5C1E92F80080E3
:10420000E4B2A04501926AD0754DC4EB041705EBEA
:104210008707B96A786AFCF74BFD0146FCF740FC5A
:10422000D7F820B08146594607F11C0AFCF7E8FE92
:1042300000B9D946CAF800904FF0470B002C74D053
:10424000009B023B5FFA83FB6FE0634B1B7800939C
:10425000CBEB0B130BF10104E4B205EB830A019BDA
:10426000482C08BF002493F800B02EE0DAF81C9028
:10427000D7F81C8048464146FCF7B8FEA8B1DAF8EA
:104280002810DAF82400FCF713FD0146FCF708FCBF
:104290004946FCF705FC814601464046FCF7C4FE52
:1042A00018B1C846A346C7F81C90321B05EB820222
:1042B000106A4146FCF790FE631C002818BFA34615
:1042C000DCB2482C08BF0024BA46009B2601371BED
:1042D0009C4205EB8707C9D1019B83F800B003B06E
:1042E000BDE8F08F3D4B93F800800193B8F1470F84
:1042F000F5D041F2C80341F2CC02394DE958A85833
:10430000FCF7D6FC0146FCF7CBFB41F2C403EF58A7
:104310000446394605F58659FCF772FE00B93C465D
:104320004FF0460B2F4FC9F80040D84545D0DFF875
:10433000B89029E05FFA82FB99F800205A4533D003
:10434000C6EB061605EB860ADAF82060DAF81C00E0
:104350003146FCF741FE98B9DAF82810DAF8240063
:10436000FCF7A6FC0146FCF79BFBF969FCF798FB00
:10437000074601463046FCF757FED8B1CAF81C7014
:10438000C34527463FF461AFCBEB0B140BF1FF3273
:1043900005EB84045E46BBF1000FCBD14FF0470B19
:1043A00099F800205A45CBD104F07AF9019B93F893
:1043B0000080C5E7CAF81C60E2E70B4A12785A454C
:1043C0007FF446AF04F06CF9034B1B780093019B1C
:1043D00093F800B03CE700BFE0120020E11200209B
:1043E00000020020A4120020E212002038B52C2286
:1043F0000021074806F09FFC00230121054D064CD3
:104400000648074A2B7023700370117038BD00BF37
:10441000E4120020E2120020E0120020E11200204D
:10442000E312002009490A4B0A781B7893420CD00A
:10443000531CDBB2482B08BF002310B405480B7097
:104440000478944208BF037010BC7047E212002049
:10445000E0120020E1120020034B04481B78C3EB5C
:10446000031300EB83007047E012002000020020DD
:10447000064B074A1B7812789A421DBF0548C3EBCA
:10448000031300EB83000020704700BFE2120020FE
:10449000E012002000020020094B0A4A1B78127823
:1044A0000133DBB2482B08BF00239A4206D0064AEC
:1044B000C3EB031302EB8303D869704700207047F6
:1044C000E2120020E012002000020020044A054B06
:1044D00010781B78C01AB0FA80F04009704700BF0E
:1044E000E2120020E312002038B5837E456BDA0724
:1044F00014D5164B587AFCF787FB1549FCF7D8FB07
:104500002946FCF7D5FB04464FF07E512046FCF7C8
:1045100081FD08B94FF07E54204638BD5B07044644
:104520000BD40A4B187AFCF76FFB0949FCF7C0FB68
:1045300001462846FCF7BCFB0546246B294620466D
:10454000FCF75EFD0028DFD12C46DDE76C1B002068
:104550000AD7233C2DE9F04F354D364A364B83B010
:10456000287A147893F800B0FCF74EFB3349FCF737
:104570009FFB0190687AFCF747FB3049FCF798FBFA
:104580002F4F0090DFF8C0A04FF07E5923E0414646
:104590000098FCF78DFB054649462846FCF73AFD96
:1045A00000B94D4629463846D6F82C80FCF71EFD4A
:1045B000002831D039463846FCF77AFB0746414699
:1045C0003846FCF731FD20BB37620134E4B2482C99
:1045D00008BF00242F465C4524D025012E1B0AEB82
:1045E0008606B37ED6F83480DA07D0D45B0704D4CD
:1045F00040460199FCF75CFB80462D1B0AEB8505C4
:104600002D6B41462846FCF7FBFC0028C4D14546EB
:10461000C2E7C6F82080D8E729462846FCF748FBC1
:104620000746CCE7074B9F6203B0BDE8F08F00BFA1
:104630006C1B0020E2120020E01200200AD7233C6D
:10464000FFFF7F7FE4120020000200202DE9F04FE1
:104650007E4B8B461E787E4D3701A7EB060805EB97
:10466000880897B082463C220021404606F063FB52
:104670009BF80830DBF804209C074CBFDFF8D8E13A
:10468000DFF8D0E188F81A30C8F8382007ACBEE867
:104690000F000FC4DFF8C491DEF80030D9F8002015
:1046A000DAF80010236010460192FCF701FB06F0D7
:1046B000FFFB8646B91B079889006B18AEEB00001C
:1046C0005A6980EAE074A4EBE07494426C5038BFFD
:1046D00014465C610093CDF808E0FCF795FA019A66
:1046E0001146FCF799FB00210C90FCF77FFC009B26
:1046F000002840F04F81D9F80420DAF80410104661
:104700000192FCF7D5FA06F0D3FB01460898BB1BD3
:10471000081A80EAE07EAEEBE07E744538BF74464E
:1047200005EB8303C3F804E05C6100930391FCF79D
:104730006BFA019A1146FCF76FFB00210D90FCF714
:1047400055FC009B002840F03181D9F80820DAF8A8
:10475000081010460192FCF7ABFA06F0A9FB0146DF
:104760000998BB1B081A80EAE07EAEEBE07E744538
:1047700038BF744605EB8303C3F808E05C6100931F
:104780000491FCF741FA019A1146FCF745FB002120
:104790000E90FCF72BFC009B002840F00181D9F81B
:1047A0000C20DAF80C1010460192FCF781FA06F0A2
:1047B0007FFB01460A98BB1B081A80EAE07EAEEB3D
:1047C000E07E744538BF744605EB8303C3F80CE004
:1047D0005C6100930591FCF717FA019A1146FCF70A
:1047E0001BFB00210F90FCF701FC009B002840F010
:1047F000CB80D9F81030DAF8101018460093FCF787
:1048000057FA06F055FB02460B98A7EB060A101A5A
:1048100080EAE071A1EBE0718C4238BF0C4605EBF9
:104820008A0ACAF81010CAF814400692FCF7ECF98C
:10483000009B1946FCF7F0FA00211090FCF7D6FB1C
:1048400070B9B4B9204617B0BDE8F08FE01200206F
:1048500000020020E4120020981B0020301D0020E0
:104860009F4ABAF8183012891343AAF81830002C5E
:10487000E8D00CA8FFF7D0FBBC1B05EB8404A062BA
:104880000CA99848FFF746FC0CA960629648FFF710
:1048900041FC94F81AA020631AF0010F00F08C80FC
:1048A0006063924B924A1B7812789A4203D01AF0B6
:1048B000020F00F08C800022BB1B05EB8303DA6142
:1048C000DA62BB1B05EB83039A7E900700F1F08050
:1048D000D1075C6B00F1E08053070AD4854B187A4E
:1048E000FCF792F92146FCF7E3F98349FCF7E0F97C
:1048F0000446BE1B05EB86052E6B21463046FCF7B1
:104900007FFB00B926464FF07E513046FCF782FB14
:1049100008B94FF07E56794F3146BD6AD8F82C4021
:104920002846FCF763FB002800F0C980294628468A
:10493000FCF7BEF9054621462846FCF775FB002822
:1049400040F0BA80C8F82050BE626D4F6D4C97F8A9
:1049500000E00CAD0EF10106F6B2482E08BF0026AD
:104960000FCD0FC42B6802AD44F824390FCD0FC40E
:104970002B685F4A236082F800E03E70FFF734FC4A
:10498000012017B0BDE8F08F55491A8BC9880A433A
:104990001A832EE7524A198B12880A431A83AAE611
:1049A0004F491A8B89880A431A83F8E64C491A8BB7
:1049B00049880A431A83C8E6DBF800101AF0080F8A
:1049C00061633FF46EAFA06AFCF772F968E74B4C85
:1049D000DDF830B0D4F814A058465146FCF768F919
:1049E000514600F1004A5846FCF758F8A369DDF833
:1049F00034B01946119058460093FCF759F9014616
:104A00005046FCF74BF8009B824619465846FCF787
:104A100045F8E369DDF838B019461290584600931E
:104A2000FCF746F901465046FCF738F8009B8246F1
:104A300019465846FCF732F8236ADDF83CB01946AF
:104A4000139058460093FCF733F901465046FCF7A3
:104A500025F8009B824619465846FCF71FF8D4F803
:104A600024B0109C149021465846FCF721F90146C9
:104A70005046FCF713F8594682462046FCF70EF8DC
:104A8000214915905046FCF7CFFAF0B10022BB1B2C
:104A900005EB8303DA6214E7164B587AFCF7B4F897
:104AA0002146FCF705F91449FCF702F906462AE706
:104AB000012017B0BDE8F08FC8F8204044E7314628
:104AC0003046FCF7F5F8054635E710495046FCF747
:104AD0008DFAF8B1BB1B0E4A05EB8303DA62F0E6F0
:104AE000C0C00008581D0020441D0020E212002014
:104AF000E01200206C1B00200AD7233CE4120020A7
:104B0000E3120020F8120020EFFF7F3FEFFF7FBF8E
:104B1000FFFF7F7F11A8FFF77FFA11A91748FFF762
:104B2000F9FA514683464FF07E50FBF7B7FF4FF03E
:104B30007C51FCF7BDF806F01FFA824658465146F4
:104B4000FCF7B6F8D9F85810FCF7B2F85146814690
:104B50004FF07E50FBF7A2FF01464846FCF75CF998
:104B6000BC1B002105EB84048146FCF753FA08B90D
:104B70004FF00009C4F82C90A3E600BF581D002098
:104B800030B4044D044C0FCD0FC42B68236030BCEF
:104B9000704700BF981B0020E4120020064A074B14
:104BA00012781B789A422CBF03F1470003F1FF30C3
:104BB000801AC0B2704700BFE0120020E21200204D
:104BC00008B503F06DFD044A044B12781A70BDE875
:104BD0000840FFF709BB00BFE2120020E1120020ED
:104BE00010B50446007828B102F01EFB14F8010F3E
:104BF0000028F9D110BD00BF632870B5054620D943
:104C00001C48A0FB05304009303002F00DFB1A486B
:104C1000A0FB0534E408E3B2A0FB0320C00800EBCE
:104C20008000A3EB40003030C0B202F0FDFA04EB8C
:104C30008400A5EB40003030C0B2BDE8704002F007
:104C4000F3BA092805D8BDE870403030C0B202F090
:104C5000EBBA0A26B0FBF6F404F13000C0B202F061
:104C6000E3FA06FB1450BDE870403030C0B202F0E9
:104C7000DBBA00BF1F85EB51CDCCCCCCF0B50D46D7
:104C800085B000210646FCF7B1F9002852D1012D6C
:104C900056D92C462F4F30463946FCF709F8023CCE
:104CA000E4B2012C0646F6D805F0010323B13046E4
:104CB0002949FBF7FDFF06464FF07C513046FBF7D4
:104CC000EFFEFCF7D1F900283CD00022234EA6FBD2
:104CD0000013DB0803EB8301A0EB4100541C04A983
:104CE00030300A44E4B202F8100C22461846002B79
:104CF000EDD1A54228D96A1E121BD2B201320DEBAA
:104D00000400302106F017F8302204AB6C1C2B4451
:104D100003F8102CE4B25CB10DEB0406A54215D0EB
:104D200016F8010D013C02F07FFA14F0FF04F5D1F2
:104D300005B0F0BD2D2002F077FA06F10046A6E797
:104D40002B46B3E70446D4E7E5D1DDE72E2002F099
:104D50006BFAE5E70000C84200002041CDCCCCCC86
:104D600030B56E4B85B093F86830DB0752D4002124
:104D70000446FCF73BF9002840F0A880684920462B
:104D8000FBF796FF4FF07C51FBF78AFEFCF76CF9BE
:104D9000002800F0A1800021624D00E02146A5FB23
:104DA0000023DB0803EB8302A0EB420004AA3030AF
:104DB0004C1C0A4402F8100CE4B21846002BEDD14A
:104DC000022C16D830228B1C04A8DBB20444032B1F
:104DD00004F8102C07D00344FF2903F8102C02D14B
:104DE00030238DF80230302304241D468DF8033023
:104DF00005E0032CF7D004AB234413F8115C013C0D
:104E0000E4B2022C7BD0284602F00EFA002CF2D13C
:104E100005B030BD4449FBF74BFF00210446FCF7C9
:104E2000E5F800285ED141492046FBF741FF4FF0ED
:104E30007C51FBF735FEFCF717F9002858D000210C
:104E4000384D00E02146A5FB0023DB0803EB83027D
:104E5000A0EB420004AA30304C1C0A4402F8100CAB
:104E6000E4B21846002BEDD1032C1ED830228B1C47
:104E700004A8DBB20444042B04F8102C0FD0033137
:104E8000C9B20344042903F8102C08D0302304AA23
:104E90000A44022902F8103C01D18DF80330302376
:104EA00005241D468DF8043005E0042CF7D004AB32
:104EB000234413F8115C013CE4B2032C26D02846AD
:104EC00002F0B2F9002CF2D105B030BD2D2002F075
:104ED000ABF904F1004451E730238DF800308DF830
:104EE00001307DE72D2002F09FF904F100449AE79C
:104EF000302302218DF800308DF80130C6E72E20D6
:104F000002F092F9284602F08FF974E72E2002F0A1
:104F10008BF9284602F088F9C9E700BF301D002050
:104F200000007A44CDCCCCCC8B42213D00401C46C5
:104F300070B54D4B84B093F86830DB0735D4002151
:104F40000446FCF753F800287BD14FF07C512046F3
:104F5000FBF7A6FDFCF788F800286DD00022434D32
:104F6000A5FB0013DB0803EB8301A0EB4100541CFD
:104F700004A930300A44E4B202F8100C2246184664
:104F8000002BEDD1002C57D004AB1A4412F8110CB1
:104F9000013CE4B26D466C4401E014F8010D02F0EE
:104FA00043F9AC42F9D104B070BD3149FBF780FE42
:104FB00000210446FCF71AF8002848D12D49204664
:104FC000FBF776FE4FF07C51FBF76AFDFCF74CF8DF
:104FD000A0B10021254CA4FB0032D20802EB8203D1
:104FE000A0EB430004AD4B1C30302944DBB201F888
:104FF000100C19461046002AEDD173BB30238DF8F2
:1050000000303022022316468DF801205C1EE5B2E6
:105010006D4400E05C1E304602F006F9E3B2012B5D
:1050200015F8016DF6D12E2002F0FEF8304604B0DE
:10503000BDE8704002F0F8B8302001248DF800007F
:10504000A6E72D2002F0F0F804F100447DE72D20C2
:1050500002F0EAF804F10044B0E7012BD1D0294472
:1050600011F8116CD2E700BF301D0020CDCCCCCCA4
:105070008B42213D0000204110B5012182B04FF448
:1050800000740820FCF7D8FB0322482302A921F86A
:10509000044D09488DF806208DF80730FCF7B0F96B
:1050A0000021064A064B92F9682019808A42A8BF5F
:1050B0001C8002B010BD00BF000C0140301D00205C
:1050C000AE1B002000230749074A91F9681013809E
:1050D0009942AABF4FF400714FF40073118000B1E0
:1050E00013807047301D0020AE1B002008B5054816
:1050F000FCF73CFB044B00F400701B88181A18BF27
:10510000012008BD000C0140AE1B002070B50C480A
:10511000FCF72CFB0B4B00F400701B8883420DD076
:105120000022094B094D0A4C1A700A4E0FCD0FC4CC
:1051300033782A6843F040033370226070BD00BFAB
:10514000000C0140AE1B0020821B0020981B002099
:10515000841B0020811B002008B5FFF789F920B1CE
:10516000BDE80840022004F055BB08BD70B5AB4B4C
:105170001B78002B4FD1AA4CAA4D2B7803F0FF05CA
:1051800093B3EE0600F1D080E80700F1EB8015F054
:10519000E80F0AD02378990700F0EA806EB2002E5B
:1051A000C0F25F81E82004F03FFBA80719D515F095
:1051B000680F13D12378402B00F06481002B40F05E
:1051C000398100232371FFF753F920B1A37813F03D
:1051D000400300F08F810023A3702370022004F0AD
:1051E00023FB680700F1A3808F4B1B7803F0FF05BA
:1051F000002B61D18D4B1B7803F0FF05DBB92378C1
:1052000013F0FC0F03D170BD15F0C00F47D1BDE8FE
:10521000704003F05BBA012603F0FF05804C28467E
:10522000013D267001F09EF9B54240F220817D4D8E
:1052300004F00CFBA1E704F02DFBA27A15F0010F9E
:105240000CBF13466423A90744BF0A33DBB26E07C1
:1052500044BF0A3BDBB2280744BF0133DBB2E90697
:1052600044BF03F1FF33DBB2C82B28BFC8230A2B8E
:1052700038BF0A239A4206D000212279A37242F055
:10528000080323712173AE06237802D5102B00F09A
:10529000BA8015F0C00FB3D0002B40F0DD80644E13
:1052A000357A690600F18A8045F040052846FCF70A
:1052B000F1FB23783572A3E704F0E4FA217A15F0C4
:1052C000010F0CBF0B466423AE0744BF0A33DBB2A9
:1052D000680744BF0A3BDBB22E0744BF0133DBB291
:1052E000E80644BF03F1FF33DBB2C82B28BFC82355
:1052F0000A2B38BF0A23607A15F0200F14BF6422EE
:10530000024615F0400F18BF322215F0800F18BF6B
:105310001922994223D00021237262722173FFF770
:1053200019F9FFF74DFC65E70123637070BD237821
:1053300013F0D00F02D0E378002B54D0A3781A06D4
:1053400055D413F0200236D0402203F07F0343F0FF
:105350000103A3702270042004F066FA44E782423D
:10536000D9D147E701F05AFD012004F05DFA0EE7BC
:1053700013F0280F25D14BBB0122A2706A0600F161
:1053800097802B076EB201D510232370A8067FF5F6
:1053900006AF062001F0FCF8A378190607D422789E
:1053A000402A00F0B680802A01D04022227043F0CB
:1053B0002003A370F3E6A2702270CCE705F0BF05CE
:1053C00074E7A27812F0C00F00F083806AB268061A
:1053D000164602D5990640F1A4802A07D6D513F0C7
:1053E000E00FD3D1D0E794F90230002B53DA002339
:1053F0002371FEF7FBFF02F0E1FFFCF737FCFFF73C
:10540000BFFBA3789DE7E37A002B56D10223E3721A
:1054100015F0C00F7FF443AFF9E600BFAC1B0020CE
:105420006C1B0020811B0020681B0020801B0020BB
:10543000BC1A0020DA067FF5D1AEA278D6077FF538
:10544000CDAE102B7FF4BDAEE37A002B3FF4B9AEA6
:1054500043F00803E372C1E613F0180F3FF4D0AE37
:105460001DE72378012B2FD0802323709AE6304646
:1054700001F08EF8102004F0D7F92C4D2B78DB06C4
:10548000FCD5D5E6A37813F020027FF4A7AED906A9
:1054900038D5227095E6FFF793FB2379990703D55A
:1054A000A27842F00102A27023F00603237152E7B2
:1054B00041216AB21646A1708FE7D8077FF5A4AEE6
:1054C00043F00403E372A3E7A37843F00503A3705A
:1054D000CAE703F0E5F8022223782271202B7FF43B
:1054E0004AAF6EB2002EFFF651AFA37863F07F0390
:1054F000A3704BE70822A370227003F0E7F802F0D4
:1055000003FD6BE65A077FF569AE43F00803A3700D
:1055100064E61A077FF549AF23F01C0343F002034A
:1055200043E7A17841F04001C4E700BF811B0020A0
:105530002DE9F04F83B0FEF79BFF002800F0D282E8
:10554000837ED0F838800193C04E96F868309B0770
:1055500000F1998200254FF07E59BD4CA378002BB5
:1055600000F09A806278002A40F09680DF071AD512
:10557000217811F0C00000F0928013F0040B00F0CD
:105580007381802900F0C282402900F058821807F8
:1055900009D5DFF8D0B29BF80920002A00F0CC81B1
:1055A000990740F11782AB4B1B7803F0FF0B002BE0
:1055B00040F08A80A84F3B7803F0FF0B002B54D0BB
:1055C0001BF0100F40F01D811BF0010F40F06C81AB
:1055D0001BF0E80F0CD023789F0700F06B814FFA87
:1055E0008BFABAF1000FC0F29481E82004F01CF9A4
:1055F0001BF0020F19D01BF0680F13D12378402B3A
:1056000000F03882002B40F0F28100232371FEF776
:105610002FFF20B1A37813F0400300F06C82002329
:10562000A3702370022004F0FFF81BF0040F1CD0BD
:10563000237813F0D00F00F0F680E378002B40F0D1
:10564000F28094F90230002BC0F2ED81FFF7B8FA36
:1056500023799A0703D5A27842F00102A27023F0C1
:1056600006030420237104F0DFF87C4B1B7803F061
:10567000FF0B002B36D17A4B1B7803F0FF0B002B6E
:1056800074D1237813F0FC0F3FF468AF03F01EF8D9
:10569000A378002B7FF466AF03B0BDE8F08FE37A08
:1056A000002B00F0B1809F0740F1EE806D4B5B7ADC
:1056B000002B40F0D9810023E372664B1B7803F086
:1056C000FF0B002B3FF476AF012758460BF1FF3B51
:1056D000277000F047FFBB4540F271815E4F04F038
:1056E000B5F868E704F0CEF81BF0010F18BF64238B
:1056F000227A607A08BF13461BF0020F1CBF0A33E0
:10570000DBB21BF0040F1CBF0A3BDBB21BF0080F1F
:105710001CBF0133DBB21BF0100F1CBF03F1FF33C2
:10572000DBB2C82B28BFC8230A2B38BF0A231BF0C3
:10573000200F14BF642101461BF0400F18BF322117
:105740001BF0800F18BF19219A4201D1884292D0D4
:105750000022237261722273FEF7FCFEFFF730FA1B
:105760003F4B1B7803F0FF0B002B8AD004F092F81C
:105770001BF0010F18BF6423A27A08BF13461BF069
:10578000020F1CBF0A33DBB21BF0040F1CBF0A3B25
:10579000DBB21BF0080F1CBF0133DBB21BF0100F94
:1057A0001CBF03F1FF33DBB2C82B28BFC8230A2B71
:1057B00038BF0A239A4206D000212279A37242F010
:1057C0000803237121731BF0200F237802D0102BC4
:1057D00000F03F811BF0C00F3FF454AF002B40F0AE
:1057E000CC80DFF880B09BF80820510640F1D080D3
:1057F00002F0BF0A5046FCF74DF923788BF808A059
:1058000040E701236370A9E623791A077FF5CBAE41
:10581000019B414603F0300002F036FA237923F071
:1058200008032371BFE6A3781F0600F1FC8013F084
:10583000200200F09F80402203F07F0343F0010329
:10584000A3702270042003F0EFFF0EE7301D00204C
:105850006C1B0020AC1B0020811B0020681B00205B
:10586000801B0020BC1A00202946584684F80BB043
:1058700002F00AFA5846FCF70DF9A37823F0020368
:1058800043F00403A3708EE613F00C0F3FF48BAECD
:10589000BA4A527A002A40F0068119077FF50BAF09
:1058A000022003F0B7FF06E701F0B8FA012003F089
:1058B000BBFF8DE613F0280F75D0A27812F0C00F51
:1058C00069D01BF0400F4FFA8BFA02D0980640F1D6
:1058D00050811BF0080F03D013F0E00F00F0A08000
:1058E0001BF0200F3FF47DAE062000F051FEA378A0
:1058F000190607D42178402900F0EC80802901D0D6
:105900004021217043F02003BAF1000FA370BFF6CD
:105910006CAE2378012B00F0D6808023237064E6E0
:10592000019B414603F0300002F0AEF901214FF037
:105930008140FEF717FBA3789BF8081003F00202E2
:1059400071B1002A7FF42FAE019B03F04000FCF7F9
:10595000A1F801214846FEF705FBA37803F00202F7
:10596000002A7FF420AE43F010030220A37003F05E
:1059700051FF18E6A270227064E713F0180F3FF48D
:1059800081AEDFF8F8B19BF8082051063FF530AF43
:1059900042F0400A2EE702F083FE022223782271B1
:1059A000202B00F0DB80002B8BD101221BF0400F5D
:1059B000A2704FFA8BFA2FD04121A17089E73846A7
:1059C00000F0E6FD102003F02FFF6D4F3B78DB0663
:1059D000FCD584E696F868209207A1D522799BF839
:1059E000081042F0080222710029BCD0ACE7DA06A8
:1059F0007FF518AEA278D1077FF514AE102B7FF497
:105A000004AEE37A002B3FF400AE43F0080302201B
:105A1000E37203F009FF08E61BF0080F3FF460AFE4
:105A2000102323705CE700232371FEF7DFFC02F0F4
:105A3000C5FCFCF71BF9FFF7A3F8A378F7E603F022
:105A400051FCA37800287FF4A2AD03F0DF03A3701C
:105A50009DE5E37ADBB902231BF0C00FE3727FF40C
:105A6000C0AE02F033FE13E6294602F00DF9012321
:105A7000E37298E5A37813F020027FF4D3ADDF063C
:105A80005DD52270C1E5202003F0F2FE62E5D80763
:105A900002D543F00403E3721BF0C00F7FF4A1AE04
:105AA00002F014FEF4E50A2000F072FD96F868306A
:105AB00098074BD52279E37A42F008021907227140
:105AC0007FF5F9ADECE6A37843F00503A3708023DE
:105AD00023708AE51A077FF513AF23F01C0343F008
